:020000040800F2
:100000001849002049010008E91C0008990D000862
:10001000E51C0008D50800083D2A00080000000083
:10002000000000000000000000000000092300089C
:10003000B10A000800000000C91D00081D240008C6
:100040006301000863010008630100086301000800
:1000500063010008630100086301000863010008F0
:1000600063010008630100086301000863010008E0
:1000700063010008630100086301000863010008D0
:1000800063010008630100086301000863010008C0
:1000900063010008630100086301000863010008B0
:1000A00063010008630100086301000863010008A0
:1000B00063010008630100080125000863010008CE
:1000C0006301000863010008630100086301000880
:1000D0006301000863010008630100086301000870
:1000E0006301000863010008630100086301000860
:1000F0006301000863010008630100086301000850
:10010000630100086301000863010008630100083F
:10011000630100086301000863010008630100082F
:10012000630100086301000863010008630100081F
:10013000DFF810D000F06EFB00480047B93400082B
:10014000AFF3008018490020064880470648004762
:10015000FEE7FEE7FEE7FEE7FEE7FEE7FEE7FEE777
:10016000FEE7FEE7A124000831010008D2B201E059
:1001700000F8012B491EFBD270470022F6E710B5AC
:1001800013460A4604461946FFF7F0FF204610BD05
:1001900030B505462A460B4612F8010B13F8014B01
:1001A00008B1A042F8D01CB1002802D06D1CF1E7C4
:1001B000284630BD421C10F8011B0029FBD1801AD3
:1001C0007047F0B480EA0102D40F4200B2EB410F55
:1001D00002D20246084611464A0042D0C30DDDB2A3
:1001E000C1F3C752AD1A202D35DAC1F3160141F41F
:1001F000000204B15242C5F1200602FA06F12A417A
:100200001044B3EBD05F23D0C4B1012DA0EBC35099
:1002100009DCF0BC4FF0004202EAC352DBB200F549
:10022000000000F023B9400000F1807000EBC350E3
:10023000A0F1807040EAD170490009E0490841EA24
:10024000C071A0EBC35000F50000400800EBC350A4
:10025000F0BC00F002B96142012202EB4101001B37
:10026000F6E7F0BC704781F00041AAE780F000405B
:10027000A7E72DE9F04D81EA030404F0004B21F0DB
:10028000004514464FF0000A23F0004150EA0502F1
:1002900020D054EA01021DD0C5F30A570246C5F327
:1002A0001303C1F31300C1F30A5640F4801543F45D
:1002B0008013A7EB0608101BD64608F2FD3873EB37
:1002C000050002D308F1010801E092185B41B8F182
:1002D000000F03DA00200146BDE8F08D00204FF446
:1002E0008011064684460EE0171B73EB050705D305
:1002F000121B63EB050306434CEA010C49084FEA65
:10030000300092185B4150EA0107EDD152EA030038
:1003100012D082EA040083EA0501084305D0101BCD
:10032000AB4106D20122002306E000224FF0004339
:1003300002E06FF0010253101AEB06004CEB08517B
:1003400010EB0A0041EB0B01BDE8F04D00F0BCB82A
:1003500096230022114600F089B800F0004230F0E8
:1003600000400AD0C10D01F56071C0F3160042EAE9
:100370000151C208400711437047002001467047F1
:1003800001F0004330B421F0004150EA010206D0F0
:100390000A0DA2F56072C1F31301002A02DC30BC21
:1003A00000207047440F44EAC104C100E01830BC8B
:1003B00000EBC25000F051B8002801DBC0F1004052
:1003C000002901DBC1F100418142704730B50B4685
:1003D000014600202022012409E021FA02F59D4275
:1003E00005D303FA02F5491B04FA02F52844151E49
:1003F000A2F10102F1DC30BD2DE9F05F05460020DD
:1004000092469B4688460646814640241BE0284685
:1004100041464746224600F01EFA53465A46C01A45
:10042000914110D311461846224600F005FA2D1AC4
:1004300067EB01084F4622460120002100F0FCF93D
:1004400017EB00094E41201EA4F10104DFDC4846F1
:1004500031462A464346BDE8F09F0029A8BF7047B1
:10046000401C490008BF20F00100704710B4B0FAEA
:1004700080FC00FA0CF050EA010404BF10BC704785
:1004800049B1CCF1200421FA04F411FA0CF118BF9F
:10049000012121430843A3EB0C01CB1D4FEA00616E
:1004A0004FEA102042BF002010BC704700EBC35041
:1004B00010440029A4BF10BC7047401C490008BF6D
:1004C00020F0010010BC704710B5141E73F1000439
:1004D00008DA401C41F1000192185B411A4301D136
:1004E00020F0010010BD2DE9F04D92469B4611B160
:1004F000B1FA81F202E0B0FA80F22032904600F0C8
:100500009BF904460F4640EA0A0041EA0B015346B4
:100510005A46084313D0114653EA010019D0C8F1D6
:100520004002504600F097F905460E46504659469F
:10053000424600F081F9084305D0012004E020463E
:100540003946BDE8F08D0020054346EAE0762C43AD
:1005500037430A986305E40AA0EB08000022FD0A6D
:1005600044EA47540A3002D500200146E9E7010574
:1005700010196941DDE9084500196941BDE8F04DF0
:10058000A2E72DE9FE4F804681EA0300C00F0C462A
:10059000009021F0004123F00045B8EB0200A94192
:1005A00005D24046214690461C460B46024623F0A3
:1005B0000040104347D0270DC7F30A00C3F30A5188
:1005C0000290401A019040286BDAC3F3130040F404
:1005D000801B0098924620B10023D2EB030A63EB04
:1005E0000B0B01985946C0F14002504600F024F927
:1005F00006460D4650465946019A00F03CF910EB6C
:1006000008006141002487EA115284EAE7731A4323
:1006100040D0009A62B3019A012A4FEA075215DCD2
:10062000001B61EB02014FF0004202EA0752CDE9E4
:100630000042001C41F5801132462B46FFF753FF64
:1006400003B0BDE8F08F40462146F9E7001B61EB9F
:100650000201001C41F5801300185B412018A2F52F
:10066000001747EB030140EAD570B6196D4111E060
:100670006D084FEA360645EAC0754FEA0752001B7F
:1006800061EB0201001C41F5801149084FEA30007E
:100690000019514132462B4603B0BDE8F04FFFF739
:1006A00013BF0098012240000023D0EB020263EB4D
:1006B000E073009821464FEAE074B8EB000061EB6C
:1006C0000401E9E783F000435BE781F0004158E76C
:1006D0002DE9FE4F81EA030404F0004421F00041BB
:1006E00000944FF0000B23F0004350EA01045ED069
:1006F00052EA03045BD0C3F30A54C1F30A552C44F5
:10070000A4F2F3340194A0FB0254C1F3130141F4A9
:100710008011C3F3130343F4801301FB024400FB75
:10072000034E840A970A44EA815447EA8357A4FB9C
:10073000076802958D0A05FB07854FEA932C04FB99
:100740000C542705029D4FEA065847EA1637B5EBC9
:1007500008056EEB070C870E920E47EA811742EAF6
:100760008312A7FB0201B6EB0B0164EB00042B0D17
:1007700043EA0C335E1844EB1C50DA465146E7FB63
:100780000201C5F313044FEA0B3343EA14534FEA53
:100790000432019C43EA0603A4F10C040294009C79
:1007A000CDE900B4FFF79FFE03B0BDE8F08F002055
:1007B0000146F9E7C1F30A52C1F3130140F2FF33D6
:1007C00041F480119A4202DA00200146704740F25B
:1007D00033439A42A2F2334202DC524200F03BB869
:1007E00000F02AB830B5041E71F1000404DB4FF0AC
:1007F0000044404264EB0101141E73F1000405DB68
:100800001C464FF00043524263EB0403994208BF79
:10081000904230BD064C074D06E0E06840F0010311
:1008200094E8070098471034AC42F6D3FFF784FCF5
:10083000E81F050808200508202A04DB203A00FAF2
:1008400002F1002070479140C2F1200320FA03F327
:10085000194390407047202A04DB203A21FA02F025
:100860000021704721FA02F3D040C2F120029140EA
:10087000084319467047202A06DBCB17203A41FA75
:1008800002F043EAE07306E041FA02F3D040C2F11D
:1008900020029140084319467047000008B5012125
:1008A000042001F0C3FA4FF48070ADF8000010206E
:1008B0008DF8030003208DF802006946044800F01B
:1008C0008EF94FF48071024800F01DFA08BD000057
:1008D0000008014000BFFEE70748006840F0807054
:1008E000054908600020054948600846006840F056
:1008F0000100086070470000FCED00E0001000E01F
:100900000148406870470000001000E031B5002445
:10091000FFF7E2FF104800681049B0FBF1F00099C2
:1009200000FB01F500BFFFF7EBFF034611E0FFF707
:10093000E7FF02469A420CD09A4202D9D01A0444E8
:1009400003E0C3F1FF30104404441346AC4200D32B
:1009500000E0ECE700BF38BD0000002040420F007F
:1009600010B50021014801F0E5FD10BD0008004070
:1009700008B54020ADF8000048208DF80300694616
:10098000014800F02CF908BD0010014008B54020D6
:10099000ADF8000010208DF8030003208DF8020050
:1009A0006946024800F01BF908BD00000010014034
:1009B00070B50025002424E000BF4021134800F05A
:1009C00099F90028F9D02820FFF7A0FF40210F480F
:1009D00000F090F901280DD100BF40210B4800F034
:1009E00089F90128F9D0C4F1070101208840C0B27B
:1009F000054304E0C4F10701012088408543601CE1
:100A0000C4B2082CD8DB284670BD0000001001409D
:100A100010B50446FFF7BAFF4021244800F073F9EF
:100A200044F25060FFF772FF4021204800F06DF95A
:100A30001E20FFF76BFFFFF79BFF40211B4800F0D4
:100A400059F970BB00BF4021184800F053F9002845
:100A5000F9D000BF4021154800F04CF90128F9D029
:100A6000FFF7A6FF2070FFF7A3FF6070FFF7A0FF5E
:100A7000A070FFF79DFFE070FFF79AFF2071FFF76E
:100A800085FF4021094800F040F92078617808444A
:100A9000A1780844E17808442179884202D10120F4
:100AA00010BD01E00020FBE70020F9E70010014045
:100AB000704701B502E00098401E009000980028A1
:100AC000F9D108BD51B18200A2F1C042126842F0D2
:100AD00001038200A2F1C042136009E08200A2F18A
:100AE000C0421268034B1A408300A3F1C0431A604E
:100AF00070470000FEFF0F00D0E901121143C268E9
:100B00001143026911434269114382691143C26969
:100B10001143026A1143426A1143826A1143C26A55
:100B20001143026B114302689200A2F1C0421160AE
:100B3000816808290BD101688900A1F1C0410968C9
:100B400041F0400201688900A1F1C0410A60416B97
:100B50000968426B526841EA0211426B926841EAAD
:100B60000221426B928941EA0241426B128A41EAB8
:100B70000251426B127D41EA0261426B926911435C
:100B80000268521C9200A2F1C0421160C16AB1F524
:100B9000804F1BD1816B0968826B526841EA021158
:100BA000826B926841EA0221826B128A41EA025109
:100BB000826B127D41EA0261826B92691143026885
:100BC0009200A2F1C042C2F8041107E06FF0704237
:100BD00001688900A1F1C041C1F8042170472DE9E5
:100BE000F0410246002500260020002300240027B3
:100BF00091F803C00CF00F0591F803C00CF0100C35
:100C0000BCF1000F03D091F802C04CEA050591F841
:100C100000C0BCF1000F31D0146800202BE04FF071
:100C2000010C0CFA00F3B1F800C00CEA03069E4276
:100C300020D183004FF00F0C0CFA03F7BC4305FAE8
:100C400003FC4CEA040491F803C0BCF1280F06D160
:100C50004FF0010C0CFA00FCC2F814C00AE091F845
:100C600003C0BCF1480F05D14FF0010C0CFA00FC99
:100C7000C2F810C0401C0828D1D31460B1F800C0DD
:100C8000BCF1FF0F34DD546800202EE000F1080CA9
:100C90004FF0010808FA0CF3B1F800C00CEA0306A3
:100CA0009E4221D183004FF00F0C0CFA03F7BC4396
:100CB00005FA03FC4CEA040491F803C0BCF1280FC8
:100CC00005D100F1080C08FA0CF8C2F8148091F86C
:100CD00003C0BCF1480F07D100F1080C4FF0010828
:100CE00008FA0CF8C2F81080401C0828CED35460D3
:100CF000BDE8F0810246002093680B400BB1012053
:100D000000E00020704741617047016170470000BA
:100D100010B500BF094800884FF47A7100FB01F458
:100D2000074801F007FD04440020054924310880EC
:100D3000322002F04FFB204610BD00005E00002074
:100D4000000800402DE9F04180460C46104800782C
:100D500020B901F0F1F901200D4908702512E6B221
:100D6000A5F1A101C1EB011202EB411106EB41011A
:100D7000A1390802C11700EB5171CF10054839188D
:100D80002022404601F0B0F90020BDE8F0810000CB
:100D90005C0000200030180000BFFEE72DE9F84F8E
:100DA0004FF0000A0024A346A14631E0012021496A
:100DB0000860142002F034FB00201F49C1F8AC0188
:100DC00000BF1C48843800680028FAD000F0EAFF11
:100DD000641C00BF1748843800680128FAD0FFF768
:100DE000BFFDFFF795FF82465046FFF7B1FA00902E
:100DF000FFF7B3FA07460022104BFFF73AFA054611
:100E0000FFF7BEFA834649465846FFF7DAF98146AE
:100E1000052CCBD14846FFF7A0FA07460022084B25
:100E2000FFF727FA0546FFF7ABFA83465846BDE8B9
:100E3000F88F0000AC8121420080214200004D402B
:100E4000000014401FB50121082000F0EFFF4FF40F
:100E50000060ADF8000003208DF8020010208DF82E
:100E6000030069461F48FFF7BAFE4FF400611D48B2
:100E7000FFF749FF4FF48060ADF8000004208DF8C3
:100E8000030069461748FFF7AAFE4FF48061154832
:100E9000FFF739FF0121042000F0A8FF4FF0804048
:100EA00001F054FB40F2E730ADF808004720ADF800
:100EB00004000020ADF80A00ADF8060001A90A48B8
:100EC00001F058FC0121084801F02EFB01221146D7
:100ED000054801F043FC02F0DBFA0021024801F072
:100EE00029FB1FBD000C01400008004010B504465E
:100EF0002CB14FF480510548FFF705FF04E04FF493
:100F000080510248FFF701FF10BD000000140140AE
:100F10002DE9F04106460F4614461D462B46224653
:100F20003946304600F076FA04FB05F0024909889C
:100F300000F00FF9BDE8F0813E00002001B502E0AD
:100F40000098401E009000980028F9D108BD0000CC
:100F50002DE9F04F8FB00646884614469946DDE9E4
:100F6000185B274669E0304638443749098888428B
:100F700004DD002608EB09001FFA80F840464844CB
:100F800032490988884201DD0026B0462878802849
:100F900025DD2746B5F800A04FEA0A2000EB2A20FD
:100FA0001FFA80FA514605A8FFF7CCFE012105AAD9
:100FB0000E984B46CDE9002002913A461021084692
:100FC00000F0DCFC22484B463A464146CDE9000B96
:100FD000304600F041F8F01986B2AD1C2DE02046F5
:100FE00004EBD071C1F34F0728782038C0B20D90C0
:100FF00000231848C288DDE90D015043154A928844
:101000005043C217049000EB5270124A126802EB70
:10101000E0008DE80B004B463A461821102000F006
:10102000ADFC0B484B463A464146CDE9000B3046F5
:1010300000F012F8F01986B26D1C2878002892D1C1
:101040000FB0BDE8F08F000030000020320000201B
:10105000980000204C0000202DE9F05F06460F4666
:1010600090469946002400254B4642463946304674
:1010700000F0D0F92C2000F077FC00BF29E000251B
:1010800024E070193919C1EB011100EB011013496B
:1010900011F810B070193919C1EB011100EB0110F2
:1010A0000E4901EB400090F801A00A9810F8011BCE
:1010B0000A900B98814204D14BEA0A2000F058FCB8
:1010C00003E00748008800F053FC6D1C4545D8D369
:1010D000641C4C45D3D3BDE8F09F0000283A0008BB
:1010E0003C00002000B597B03C2108A8FFF745F868
:1010F0001C2101A8FFF741F80121080200F066FE5B
:1011000001200190042003908006079000200290A7
:101110000490059006900890099008200A901020ED
:101120000B9000200C900E900F9010904FF4805078
:101130001190002012901390149001A81590169011
:1011400008A8FFF7D9FC01210020FFF7BBFC17B06E
:1011500000BD70B504460D4600262C2000F004FCAE
:1011600000BF03E0284600F003FC761CA642F9D33A
:1011700070BD000008B50121602000F057FE03207B
:101180008DF8020018208DF803004FF48040ADF870
:10119000000069465B48FFF722FD4FF40040ADF8C0
:1011A000000069465748FFF71AFD0120ADF800001E
:1011B00069465448FFF713FD0220ADF80000694668
:1011C0005048FFF70CFD8020ADF8000069464E48FE
:1011D000FFF705FD4FF48070ADF8000069464A48FE
:1011E000FFF7FDFC4FF40070ADF80000694646487B
:1011F000FFF7F5FC4FF48060ADF800006946424807
:10120000FFF7EDFC4FF40060ADF8000069463E4882
:10121000FFF7E5FC4FF48050ADF8000069463A480E
:10122000FFF7DDFC4FF40050ADF80000694636488A
:10123000FFF7D5FC4FF48040ADF800006946324816
:10124000FFF7CDFC4FF40040ADF8000069462E4892
:10125000FFF7C5FC4FF48070ADF8000069462948DF
:10126000FFF7BDFC4FF40070ADF80000694625485B
:10127000FFF7B5FC4FF48060ADF8000069462148E7
:10128000FFF7ADFC03208DF8020018208DF8030055
:101290001020ADF8000069461A48FFF7A0FC202096
:1012A000ADF8000069461748FFF799FC8020ADF8BB
:1012B000000069461348FFF792FC4FF40060ADF858
:1012C000000069460F48FFF78AFC10208DF80300E4
:1012D00003208DF802000220ADF8000069460A489C
:1012E000FFF77DFC10208DF8030003208DF802002D
:1012F0004FF48050ADF8000069460248FFF76FFCDC
:1013000008BD0000001401400018014010B504465B
:10131000072C00DD10BD31480470204604EBD0716D
:101320004910A4EB410139B9F0202D4908804FF450
:10133000A0702C49088006E04FF4A070284908806E
:10134000F02028490880362000F00EFB264800884F
:1013500049F24131884205D1082141EA441000F0A8
:1013600007FB0AE02048008848F25251884204D125
:10137000002141EA441000F0FBFA2A2000F0F4FAC0
:10138000002000F0F5FA002000F0F2FA1449098874
:10139000491EC1F3072000F0EBFA11490978491EF4
:1013A000C8B200F0E5FA2B2000F0DEFA002000F0D1
:1013B000DFFA002000F0DCFA0A490988491EC1F36F
:1013C000072000F0D5FA07490978491EC8B200F095
:1013D000CFFA2C2000F0C8FA00BF9BE734000020B1
:1013E00030000020320000203600002010B5FFF74A
:1013F000C1FEFFF777FE0120FFF778FD00F0A0FAAD
:1014000000F038F802480078FFF780FF10BD0000B8
:10141000340000202DE9F04104460D4616461F46D3
:101420002A2000F0A1FA201200F0A2FAE0B200F0A7
:101430009FFAA119491EC1F30F2000F099FAA119D2
:10144000491EC8B200F094FA2B2000F08DFA281241
:1014500000F08EFAE8B200F08BFAE919491EC1F3E8
:101460000F2000F085FAE919491EC8B200F080FA91
:10147000BDE8F08110B500F025FAFE490880084665
:10148000008849F2413188427ED1CF2000F06CFAC9
:10149000002000F06DFA812000F06AFA302000F0A0
:1014A00067FAED2000F060FA642000F061FA032092
:1014B00000F05EFA122000F05BFA812000F058FA8A
:1014C000E82000F051FA852000F052FA102000F0D8
:1014D0004FFA782000F04CFACB2000F045FA392082
:1014E00000F046FA2C2000F043FA002000F040FA09
:1014F000342000F03DFA062000F03AFAF72000F020
:1015000033FA202000F034FAEA2000F02DFA00200F
:1015100000F02EFA002000F02BFAB12000F024FA9F
:10152000002000F025FA1B2000F022FAB62000F07F
:101530001BFA0A2000F01CFAA22000F019FAC020C1
:1015400000F012FA352000F013FAC12000F00CFA76
:10155000112000F00DFAC52000F006FA452000F039
:1015600007FA452000F004FAC72000F0FDF9A22098
:1015700000F0FEF9F22000F0F7F9002000F0F8F991
:10158000262000F0F1F900E096E0012000F0F0F9EB
:10159000E02000F0E9F90F2000F0EAF9262000F041
:1015A000E7F9242000F0E4F90B2000F0E1F90E2027
:1015B00000F0DEF9092000F0DBF9542000F0D8F942
:1015C000A82000F0D5F9462000F0D2F90C2000F058
:1015D000CFF9172000F0CCF9092000F0C9F90F204D
:1015E00000F0C6F9072000F0C3F9002000F0C0F9B0
:1015F000E12000F0B9F9002000F0BAF9192000F05C
:10160000B7F91B2000F0B4F9042000F0B1F9102064
:1016100000F0AEF9072000F0ABF92A2000F0A8F99D
:10162000472000F0A5F9392000F0A2F9032000F0CE
:101630009FF9062000F09CF9062000F099F930206F
:1016400000F096F9382000F093F90F2000F090F99F
:10165000362000F089F9C82000F08AF92A2000F02D
:1016600083F9002000F084F9002000F081F90020C7
:1016700000F07EF9EF2000F07BF92B2000F074F9E8
:10168000002000F075F9002000F072F9012000F050
:101690006FF93F2000F06CF93A2000F065F9552011
:1016A00000F066F9112000F05FF97348FFF746FC7F
:1016B000292000F059F901E16E48008848F25251A2
:1016C0008842F8D1CF2000F04FF9002000F050F907
:1016D000C12000F04DF9302000F04AF9ED2000F073
:1016E00043F9642000F044F9032000F041F912208E
:1016F00000F03EF9812000F03BF9E82000F034F9D9
:10170000852000F035F9102000F032F9782000F043
:101710002FF9CB2000F028F9392000F029F92C20EE
:1017200000F026F9002000F023F9342000F020F921
:10173000022000F01DF9F72000F016F9202000F03B
:1017400017F9EA2000F010F9002000F011F900204C
:1017500000F00EF9C02000F007F9212000F008F990
:10176000C12000F001F9112000F002F9C52000F0BD
:10177000FBF82D2000F0FCF8332000F0F9F83620BB
:1017800000F0F2F8002000F0F3F83A2000F0ECF856
:10179000552000F0EDF8B12000F0E6F8002000F050
:1017A000E7F8172000F0E4F8B62000F0DDF80A2092
:1017B00000F0DEF8A22000F0DBF8F62000F0D4F80C
:1017C000012000F0D5F8302000F0D2F8F22000F02F
:1017D000CBF8002000F0CCF8262000F0C5F801205E
:1017E00000F0C6F8E02000F0BFF8D02000F0C0F80C
:1017F000002000F0BDF8022000F0BAF8072000F049
:10180000B7F80B2000F0B4F81A2000F0B1F831203E
:1018100000F0AEF8542000F0ABF8402000F0A8F83B
:10182000292000F0A5F8122000F0A2F8122000F004
:101830009FF8122000F09CF8172000F099F8E120A2
:1018400000F092F8D02000F093F8002000F090F81B
:10185000022000F08DF8072000F08AF8052000F043
:1018600087F8252000F084F82D2000F081F844202E
:1018700004E0000036000020FCBF020000F078F811
:10188000452000F075F81C2000F072F8182000F0D8
:101890006FF8162000F06CF81C2000F069F81D208D
:1018A00000F066F8112000F05FF80548FFF746FBEE
:1018B000292000F059F82C2000F056F810BD000047
:1018C000FCBF020010B50024042000F04DF800BF5A
:1018D0001748008800BF1648008800F02BF804461F
:1018E0004FF6FF7000EA042400F024F8044348F2A5
:1018F0005250844201D1204610BDD32000F034F86C
:1019000000BF0B48008800BF0948008800F012F8AB
:1019100004464FF6FF7000EA042400F00BF804437D
:1019200049F24130844201D12046E5E70020E3E757
:10193000000002600148008870470000000002605B
:1019400010B502210748FFF7DEF940F6FF20FFF748
:10195000F5FA02210348FFF7D8F940F6FF20FFF718
:10196000EDFA10BD001801404FF0C04108807047EB
:101970000149088070470000000002602DE9FC4F1B
:101980000C461E464FEA004A9AFBF2FA0AF1010A97
:10199000CDF804A04FEA044A9AFBF6FA0AF1010ACC
:1019A000CDF800A04FF00009202801DBBDE8FC8F36
:1019B00000FB04FABAF1000F00D1F7E700FB04FACC
:1019C000BAF5806F00DBF1E702FB06FABAF1000F0F
:1019D00000D1EBE702FB06FABAF5804F00DBE5E742
:1019E000454BDDF834A0BAF1000F2BD100211FE0E8
:1019F000002517E0DDF82CA01AF801A04FF0800BAD
:101A00004BFA05FB0AEA0B0ABAF1000F02D04FF0BD
:101A1000010A01E04FF0000A03F801AB05F1010AE9
:101A20001FFA8AF5082DE5DB01F1010A1FFA8AF198
:101A300004FB00FA4FEAEA7B0AEB5B7BB1EBEB0FAE
:101A4000D6DB2AE000211FE0002517E0DDF82CA0FE
:101A50001AF801A04FF0800B4BFA05FB0AEA0B0ABB
:101A6000BAF1000F02D04FF0010A01E04FF0000A76
:101A700003F801AB05F1010A1FFA8AF5082DE5DB31
:101A800001F1010A1FFA8AF104FB00FA4FEAEA7B2E
:101A90000AEB5B7BB1EBEB0FD6DB174B174F4FF02D
:101AA000000C1AE04FF0000A4FEA194B00FB0B3E06
:101AB000D0460AE00EEB1A4B9BF800B007F808B0CE
:101AC000DDF804B0DA4408F101089045F2D3DDF8FE
:101AD00000B0D94417440CF1010CB445E2D3DFF84F
:101AE0001CA0CDF830A0DDF830A00AF1010ACDF835
:101AF00030A000BF5AE70000984000209800002066
:101B00000149086070470000380000202DE9F05FAF
:101B100082468B4615461E460A9F002433462A46B7
:101B200059465046FFF776FC2C20FFF71DFF00BFFB
:101B30000AE017F8149007EB440090F8018049EA96
:101B40000820FFF715FF641C05FB06F0A042F0D843
:101B5000BDE8F09F1CB52B48FFF7D2FF2A484FF491
:101B6000A073F022002100900846FFF7CFFF00206D
:101B700026A130231A46CDE9001014211820FFF7C2
:101B8000E7F9002023A118231A46CDE900104421CB
:101B9000FFF7DEF9002023A110231A46CDE900103B
:101BA0006421FFF7D5F9002020A110231A46CDE9C2
:101BB000001064217820FFF7CBF900201DA110232D
:101BC0001A46CDE900107821FFF7C2F900201BA1C9
:101BD00010231A46CDE9001078210846FFF7B8F91E
:101BE0006FF07F40FEF765FF6FF07F40FEF761FF0B
:101BF0006FF07F40FEF75DFF6FF07F40FEF759FF0B
:101C00001CBD000044000020283A000857656C63A2
:101C10006F6D6500D0A1D7E9B3C9D4B1C8E7CFC211
:101C200000000000CDF5BFA1BBD40000D0ECB7C9C7
:101C3000B7C900003332B3C2C7AC0000D6DCB4DE93
:101C4000B3BF000008B50121402000F0EFF84020AC
:101C5000ADF8000028208DF8030069460148FEF722
:101C6000BEFF08BD0018014070B504460D46294668
:101C70002046FFF73FF8012801D1002070BD012068
:101C8000FCE7000008B50121082000F0CFF8202073
:101C9000ADF8000010208DF8030003208DF802003D
:101CA00069460F48FEF79BFF0120ADF8000069462A
:101CB0000B48FEF794FF0220ADF800006946084883
:101CC000FEF78DFF20210648FFF71FF80121044889
:101CD000FFF71BF802210248FFF717F808BD0000C4
:101CE000000C014000BFFEE7704710B54FF4A06044
:101CF00000F04EF810BD08B54FF4A06000F048F8B1
:101D000026208DF8000001208DF8010000208DF8BC
:101D1000020001208DF80300684600F001F808BDBC
:101D200070B5002100230F22C47804B3154C246839
:101D300004F4E064C4F5E064210AC1F10403CA407C
:101D4000447804FA03F184781440214309010E4CCD
:101D50000678A155047804F01F050124AC400578ED
:101D60006D11AD0005F1E025C5F8004109E00478EA
:101D700004F01F050124AC40044D0678761145F8A7
:101D8000264070BD0CED00E000E400E080E100E0E2
:101D900002490143024A1160704700000000FA0541
:101DA0000CED00E010B50021054800F0E0FC00203B
:101DB000044908800121024800F0BCFB10BD00006E
:101DC000000800405E0000207047000029B1064A6C
:101DD00052690243044B5A6104E0034A5269824348
:101DE000014B5A61704700000010024029B1064AB9
:101DF000D2690243044BDA6104E0034AD2698243A8
:101E0000014BDA61704700000010024029B1064A18
:101E100012690243044B1A6104E0034A12698243C7
:101E2000014B1A61704700000010024029B1064AB8
:101E300092690243044B9A6104E0034A9269824327
:101E4000014B9A61704700000010024029B1064A18
:101E5000D2680243044BDA6004E0034AD26882434A
:101E6000014BDA60704700000010024030B50021DD
:101E70000022002400232D4D6D6805F00C0121B1D6
:101E8000042905D0082923D105E0294D056022E069
:101E9000274D05601FE0254D6D6805F47012234D38
:101EA0006D6805F48034022505EB92421CB9214D82
:101EB000554305600BE01D4D6D6805F400351DB1FF
:101EC0001C4D5543056002E0194D5543056002E085
:101ED000174D056000BF00BF144D6D6805F0F0019F
:101EE0000909154D6B5C0568DD4045600F4D6D6857
:101EF00005F4E061090A104D6B5C4568DD408560C2
:101F00000A4D6D6805F46051C90A0B4D6B5C45685C
:101F1000DD40C560054D6D6805F44041890B074DF6
:101F20006B5CC568B5FBF3F5056130BD0010024080
:101F300000127A0000093D00140000202400002057
:101F400010B580210348FEF718F9002002490880E7
:101F500010BD000098440020900000202DE9F041C1
:101F600004460D460A262046FEF724F987B23A4673
:101F700021460F4800F064FD13E000F073F868B9E3
:101F800029460C48FEF704F940B10A490AA000F0BE
:101F900081FDFFF7D5FF0020BDE8F0810948FEF77D
:101FA00088FD301EA6F10101CEB2E6D10120F3E793
:101FB0000044004098440020474F543A20257320A5
:101FC000200A0000FFFF0F0000B585B001210420AA
:101FD000FFF72CFF01214804FFF708FF0420ADF8AC
:101FE000100018208DF8130003208DF8120004A9AA
:101FF0001A48FEF7F4FD0820ADF8100004208DF813
:10200000130004A91548FEF7EAFD4FF4964000902E
:102010000020ADF80400ADF80600ADF80800ADF8FA
:102020000C000C20ADF80A0069460D4800F096FC43
:1020300001210B4800F005FCFFF75DFE012240F294
:102040002551074800F065FC0121054800F0F9FB27
:102050004021034800F0ECFB05B000BD0008014042
:10206000004400400A48008808B901207047084829
:10207000008808490988884203D100200449088063
:10208000F4E703480088034908800120EEE70000D8
:10209000900000209200002010B5FFF751FF02E0F1
:1020A0000448FEF706FD04A104A0FFF757FF00282F
:1020B000F6D110BDFFFF0F004F4B000041544431DB
:1020C000393930313534313230333B0D0A000000BC
:1020D00021B1028842F04002028004E002884FF6FB
:1020E000BF731A400280704770B505460C4616460D
:1020F00001211048FEF707FE032000F07DF8C4F32D
:10210000074000F079F8C4F3072000F075F8E0B25A
:1021100000F072F804E0FF2000F06EF828706D1CEB
:10212000301EA6F101018EB2F5D101210148FEF762
:10213000ECFD70BD0010014000B587B0012108031F
:10214000FFF774FE0121D420FFF770FE0120ADF8E7
:10215000040003208DF8060010208DF8070001A967
:102160002248FEF73CFD2020ADF8040018208DF831
:10217000070001A91E48FEF732FD4020ADF804001B
:1021800001A91B48FEF72BFD8020ADF8040001A932
:102190001748FEF724FD01211448FEF7B6FD002084
:1021A000ADF808004FF48270ADF80A000020ADF8D9
:1021B0000C000220ADF80E000120ADF81000400226
:1021C000ADF812000820ADF814000020ADF816009C
:1021D0000720ADF8180002A9064800F057F80121C1
:1021E0000448FFF775FF07B000BD00000010014074
:1021F000000801400030014010B504464FF4805003
:10220000194908600AE018490868411E164A116019
:1022100020B9002000F058F8C0B210BD02211348C8
:1022200000F026F80028EED02146104800F02CF8E7
:102230004FF480500C4908600AE00B490868411EC1
:10224000094A116020B9012000F03EF8C0B2E4E76D
:102250000121064800F00CF80028EED0034800F0F9
:1022600010F8C0B2D9E70000400000200030014063
:102270000246002013890B400BB1012000E0002032
:1022800070470146888970478181704710B50022E8
:10229000028802F441520B884C8823438C882343E4
:1022A000CC8823430C8923434C8923438C892343C3
:1022B000CC8923431A430280838B4FF2FF7423405F
:1022C00083830B8A038210BD10B50446214602A009
:1022D00000F0E0FB002010BD3C3C2D464C41534833
:1022E0002D4552524F522D3E3E2053504920B5C8E5
:1022F000B4FDB3ACCAB1216572726F72436F64658D
:10230000203D2025640A0000704710B500F002F857
:1023100010BD00000CB5002001900090334800680B
:1023200040F480303149086000BF3048006800F454
:10233000003000900198401C0190009818B9019855
:10234000B0F5A06FF1D12948006800F4003010B159
:102350000120009001E0002000900098012843D166
:102360002348006840F010002149086008460068D2
:1023700020F0030008600846006840F00200086092
:102380001A4840681949486008464068486008464D
:10239000406840F4806048600846406820F47C1043
:1023A00048600846406840F4E81048600846006805
:1023B00040F08070086000BF0C48006800F00070BA
:1023C0000028F9D00948406820F003000749486018
:1023D0000846406840F00200486000BF034840687B
:1023E00000F00C000828F9D10CBD000000100240DC
:1023F00000200240042808D14FF0E021096941F093
:1024000004014FF0E022116107E04FF0E02109697B
:1024100021F004014FF0E0221161704710B500F087
:10242000FBF910BD30B51A4800681A4AB0FBF2F14A
:10243000B1F1807F01D301201DE021F07F40401EDB
:102440004FF0E022506150170F22002807DA1307DF
:102450001D0E114B00F00F04241F1D5503E0130740
:102460001C0E0E4B1C5400BF00204FF0E022906168
:1024700007201061002008B100BFFEE74FF0E02008
:10248000006920F001004FF0E021086130BD00003C
:102490000000002040420F0018ED00E000E400E0E2
:1024A00010B51348006840F0010011490860084663
:1024B0004068104908400E494860084600680E49C7
:1024C00008400B4908600846006820F48020086036
:1024D0000846406820F4FE0048604FF41F00886002
:1024E000FFF713FF4FF000600449086010BD0000C3
:1024F000001002400000FFF8FFFFF6FE08ED00E0CC
:1025000010B50121064800F018F940B10121044836
:1025100000F00DF803480088401C0249088010BDF7
:10252000000800405E000020CA4302827047CA4390
:102530000282704721B1028842F00102028004E069
:1025400002884FF6FE731A400280704710B50446A9
:102550006848844208D10121C014FFF777FC0021AC
:10256000E014FFF773FCC4E0B4F1804F08D10121FF
:102570000846FFF74BFC00210120FFF747FCB8E0BD
:102580005D48844208D101210220FFF73FFC002171
:102590000220FFF73BFCACE05848844208D10121FF
:1025A0000420FFF733FC00210420FFF72FFCA0E0FC
:1025B0005348844208D101210820FFF727FC00215D
:1025C0000820FFF723FC94E04E48844208D1012103
:1025D0001020FFF71BFC00211020FFF717FC88E0FC
:1025E0004948844208D101212020FFF70FFC002137
:1025F0002020FFF70BFC7CE04448844208D10121F5
:102600004014FFF723FC00216014FFF71FFC70E06B
:102610003F48844209D10121C804FFF717FC00217B
:102620004FF40020FFF712FC63E03A48844209D1DE
:1026300001210805FFF70AFC00214FF48010FFF785
:1026400005FC56E03448844209D101214805FFF7D2
:10265000FDFB00214FF40010FFF7F8FB49E02F4885
:10266000844208D101214020FFF7D0FB0021402007
:10267000FFF7CCFB3DE02A48844208D101218020AD
:10268000FFF7C4FB00218020FFF7C0FB31E02548A5
:10269000844208D101218015FFF7B8FB0021A01565
:1026A000FFF7B4FB25E02048844209D1012108044A
:1026B000FFF7CCFB00214FF48030FFF7C7FB18E099
:1026C0001A48844209D101214804FFF7BFFB0021C9
:1026D0004FF40030FFF7BAFB0BE01548844208D1F5
:1026E00001218804FFF7B2FB00214FF48020FFF79F
:1026F000ADFB10BD002C014000040040000800406C
:10270000000C004000100040001400400034014064
:10271000004C0140005001400054014000180040AE
:10272000001C0040002000400040014000440140E7
:10273000004801400146888C704730B502460020B1
:1027400000230024158A05EA0103958905EA01049E
:1027500013B10CB1012000E0002030BD1AB1838913
:102760000B43838102E083898B438381704781849B
:1027700070470000002202881D4B98420ED01D4B6E
:1027800098420BD0B0F1804F08D01B4B984205D037
:102790001A4B984202D01A4B984204D14FF68F73CD
:1027A0001A404B881A43174B984207D0164B984251
:1027B00004D04FF6FF431A40CB881A4302808B881F
:1027C00083850B8803850A4B98420BD0094B9842AE
:1027D00008D00E4B984205D00D4B984202D00D4BBD
:1027E000984201D10B7A038601238382704700004F
:1027F000002C01400034014000040040000800406B
:10280000000C004000100040001400400040014057
:1028100000440140004801400448006820B10348DA
:102820000068401E01490860704700002C0000202D
:1028300001F40072B2F5007F00D100BFCA430280EC
:10284000704721B1828942F40052828104E082897A
:102850004DF6FF731A4082817047000010B50446A0
:102860002048844209D101218803FFF7EFFA0021B3
:102870004FF48040FFF7EAFA32E01B48844209D166
:1028800001214804FFF7C2FA00214FF40030FFF79E
:10289000BDFA25E01548844209D101218804FFF7DB
:1028A000B5FA00214FF48020FFF7B0FA18E0104885
:1028B000844209D10121C804FFF7A8FA00214FF48E
:1028C0000020FFF7A3FA0BE00A48844208D1012157
:1028D0000805FFF79BFA00214FF48010FFF796FAE6
:1028E00010BD000000380140004400400048004096
:1028F000004C00400050004002460020B1F5007F2F
:1029000000D100BF13880B400BB1012000E0002074
:102910007047F0B50346002400260025002040F64D
:102920006A17B94200D100BF1846C1F3421401F042
:102930001F06012707FA06F5012C01D10C3004E02F
:10294000022C01D1103000E014301AB107682F4377
:10295000076002E00768AF430760F0BD2DE9F0476C
:1029600086B005460E460024A24600BFA1460027B9
:10297000B08900B100BF2F462C8A4CF6FF7004408E
:10298000F08804432C82AC894EF6F3100440B088E2
:1029900031890843718908430443AC81AC8A4FF6FE
:1029A000FF400440B0890443AC8201A8FFF75EFAFF
:1029B0001F48874202D1DDF810A001E0DDF80CA02D
:1029C000A88900F4004040B10AEBCA0000EB0A10ED
:1029D00031684900B0FBF1F807E00AEBCA0000EBF0
:1029E0000A1031688900B0FBF1F86420B8FBF0F000
:1029F00004012009642101FB1089A88900F400402A
:102A000040B1322000EBC900B0FBF1F000F007004C
:102A1000044308E0322000EB09106421B0FBF1F020
:102A200000F00F0004432C8106B0BDE8F0870000E1
:102A300000380140C1F308028280704700BFFEE702
:102A40002DE9F04107460C46154600262246294648
:102A50000AA000F01FF80DE014F8011B3846FFF73C
:102A6000E9FF00BF40213846FFF746FF0028F9D0B4
:102A7000701C86B2AE42EFDBBDE8F0815573617227
:102A8000745F53656E64537472696E6725643A258A
:102A900073200A000FB4054B10B503A9044A02982D
:102AA00000F0EEF810BC5DF814FB00006D34000877
:102AB000940000200FB4084B10B504A902AA039893
:102AC00000F0DEF8044602A9002000F05CFC20467D
:102AD00010BC5DF814FB00008733000802E008C852
:102AE000121F08C1002AFAD170477047002001E088
:102AF00001C1121F002AFBD1704700002DE9FF5FC2
:102B000082B00021DDE90430020DDDF840B003435E
:102B100018D044F61050A2F2FF3242431514119817
:102B200001281FD0A5EB0B00401C5FEA000A4FF004
:102B300000064E4FDFF83891B046504615D5CAF121
:102B4000000413E0119801244AA3012801D16FEA7F
:102B50000B010298119AC0E90031C0E9024206B0A7
:102B6000BDE8F09FCBF10000DFE704460021404ABA
:102B7000491842EB0450CDE9001012E0E00707D0FD
:102B800032463B4640464946FDF7A2FD804689460F
:102B900032463B4610461946FDF79AFD06460F465B
:102BA0006410002CEAD1DDE90401DDE90023BAF16B
:102BB000000F06DAFDF78CFD42464B46FDF788FD17
:102BC00005E0FDF756FB42464B46FDF752FB044637
:102BD0000E460022284BFDF705FE03D84FF0FF30CC
:102BE000014607E00022254B20463146FDF7C9FC8F
:102BF000FDF7E0FD102409E0002C0ADB0A22002387
:102C0000FDF7FAFB039B30321A55641E50EA0102AD
:102C1000F2D1641C039AC4F111031444119A012ADD
:102C200003D0012208430DD10AE0084304D000205C
:102C30004FF0110B119072E7A3EB0B056D1E0DE029
:102C40005B4504DD4FF0000205F1010504E003DA05
:102C50004FF00002A5F10105002AECD0029811996D
:102C6000C0E90231C0E9004579E7000000001440E6
:102C70000000F03F300000000000F0430000E03FA3
:102C80002DE9FF4F95B09A46884606460025EEE1AD
:102C9000252877D100242746F94A0121039400E032
:102CA000044316F8013F203B01FA03F01042F7D12C
:102CB00030782A2811D06FF02F033078A0F130023D
:102CC000092A16D8039A44F0020402EB820203EBAD
:102CD00042021044761C0390EFE758F8042B03924D
:102CE000002A03DA504244F40054039044F00204F2
:102CF000761C30782E2816D116F8010F44F0040403
:102D00002A280DD06FF02F023078A0F13003092B64
:102D100009D807EB870302EB4303C718761CF3E7D8
:102D200058F8047B761C30786C280FD006DC4C28D1
:102D300017D068280DD06A2814D104E0742810D068
:102D40007A280FD10DE044F400140AE044F4801412
:102D500001E044F440147278824202D104F58014F8
:102D6000761C761C307866280BD013DC582877D078
:102D700009DC002875D04528F6D04628F4D047282D
:102D80001AD193E118E0632835D0642879D06528FA
:102D900012D18BE1702873D008DC6728F1D0692844
:102DA0006FD06E280DD06F2806D1ACE073282CD0E0
:102DB000752874D0782853D05246179990476D1CC7
:102DC00054E1C4F30250022809D003280DD0D8F8EA
:102DD000001004280DD00D6008F1040846E1D8F871
:102DE0000010EA17C1E90052F6E7D8F800100D808C
:102DF000F2E70D70F0E718F8041B8DF800100020C2
:102E00008DF80100EB46012003E058F804BB4FF0B9
:102E1000FF3061074FF0000102D40DE009F101011C
:102E20008946B9420FDA8145F8DB1BF80910002901
:102E3000F4D108E009F1010189468142FADB1BF86F
:102E400009100029F6D103985346A0EB0907214643
:102E50003846179A00F080FA284400EB090507E08D
:102E600044E008E10DE01BF8010B5246179990472A
:102E7000B9F10109F7D2534621463846179AF2E0D4
:102E800039E00A21C4F302524FF0000B0091022AEC
:102E900006D058F8040BC117032A09D00AE023E032
:102EA00008F1070020F00702F2E80201904605E071
:102EB00000B2C117042A01D140B2C117002906DAB5
:102EC0000A460021404261EB02012D2202E0220568
:102ED00004D52B228DF80420012203E0E20701D063
:102EE0002022F7E7914657E00A2100E010214FF039
:102EF000000B00910BE010214FF0000B44F0040494
:102F00000827009103E008204FF0000B0090C4F365
:102F10000252022A05D058F8040B0021032A08D0D7
:102F200008E008F1070020F00702F2E802019046ED
:102F300003E080B2042A00D1C0B24FF0000922079A
:102F40002AD53278702A07D0DDF800C08CF0100C3A
:102F50005CEA0B0C05D00EE040228DF80420012223
:102F600008E050EA010306D030238DF804308DF8D4
:102F7000052002229146009B83F0080353EA0B03CD
:102F80000AD150EA010201D1620705D530228DF83D
:102F900004204FF001097F1E3278582A04D039A24C
:102FA0000C920CAA02920BE03BA2F9E75B46009A56
:102FB000FDF722FA0C9B9B5C029A521E0292137040
:102FC00050EA0102F2D1029804A9081A00F1200B7C
:102FD000600702D524F4803400E001275F4502DD5C
:102FE000A7EB0B0000E0002000EB0B010090039822
:102FF0004944401A0390E00306D453462146179AE9
:10300000039800F0A9F90544002706E001A85246FC
:10301000C05D179990476D1C7F1C4F45F6DBE003A0
:103020000CD553462146179A039800F095F90544AC
:1030300004E030205246179990476D1C0099481EB5
:1030400000900029F5DC08E00298029952460078C9
:10305000491C0291179990476D1CBBF10001ABF11F
:10306000010BF1DC5BE100F065F90544761C30787A
:1030700000287FF40DAE19B02846BDE8F08F00009F
:10308000092801003031323334353637383961623E
:103090006364656600000000303132333435363702
:1030A000383941424344454600000000600700D4DF
:1030B000062708F1070020F00700F0E80223804609
:1030C00003F0004C5FEA0C0001D097A009E0200556
:1030D00001D596A005E0E00701D095A001E0AFF290
:1030E0004C001390307823F0004365280CD006DCA8
:1030F000452809D046281DD047287FD13BE06628C7
:1031000018D067287AD136E00021112F01DB112079
:1031100000E0781CCDE9000104A90CA8FFF7EEFC43
:10312000DDE90D010C9A4FF0000B07F10109109237
:1031300000914EE04FF000400097CDE9011004A946
:103140000CA8FFF7DBFCDDE90D020C9B0F994FF09B
:10315000000B91461093009211B9791C00EB010904
:10316000B7EB090003D4C0F1FF3B07F10109A9EB5C
:103170000700019042E0012F00DA01270021112F02
:1031800001DD112000E03846CDE9000104A90CA8BA
:10319000FFF7B4FCDDE90D010C9A00914FF0000B34
:1031A000B946109221070FD4009A4A4503DA914696
:1031B00001E0A9F10109B9F1010F05DD109AA9F1AA
:1031C0000101515C3029F4D0B84202DA10F1040F49
:1031D00003DA0121CDE9011010E0002803DC83446B
:1031E000A9EB000102E0411C494500DD8946A0EB46
:1031F0000B00401C01904FF000400290200705D4C6
:103200000198484502DB4FF0FF30019000208DF817
:103210004B0002980DF14B07B0F1004F25D0022072
:103220000C902B200D90029800280CDA404202905E
:103230002D200D9007E00A210298FDF7C7F83031E4
:10324000029007F8011D0C99481E0C900029F2DC31
:1032500002980028EFD1791E0D980870307800F0A0
:10326000200040F0450007F8020D11A8C01BC01D4A
:1032700002901398007800B1012000EB0901019839
:1032800001EBE071029801440398401A401E03903C
:10329000E00306D453462146179A039800F05CF8E1
:1032A00005441398007818B15246179990476D1C41
:1032B000E00323D553462146179A039800F04CF8B3
:1032C00005441BE0BBF1000F07DB0098584504DD07
:1032D0001098179910F80B0001E01799302052460A
:1032E000904701980BF1010B401E05F1010501907B
:1032F00004D12E205246179990476D1CB9F1000158
:10330000A9F10109DEDC05E017F8010B5246179917
:1033100090476D1C0299481E02900029F4DC534628
:103320002146179A03989EE62D0000002B0000000E
:10333000200000002DE9F041044600251E461746F6
:10334000880404D405E039462020B0476D1C641E73
:10335000F9D52846BDE8F0812DE9F0410446002565
:103360001E469046C80301D5302700E02027880478
:1033700004D505E041463846B0476D1C641EF9D5BA
:103380002846BDE8F0810A68531C0B601070704736
:1033900010B56FF00400FFF72DF80A4800680A49DD
:1033A000B0FBF1F0094908700846007800EB4001D5
:1033B000C1EBC0104FF6FF7101EAC000044908805C
:1033C00010BD00000000002000127A00280000203C
:1033D0002A0000200146114A12884A434FF0E02398
:1033E0005A6100229A611A46126942F001021A617A
:1033F00000BF4FF0E022106900F001021AB100F4A2
:103400008032002AF5D04FF0E022126922F001024A
:103410004FF0E0231A6100229A6170472A000020D1
:103420000146114A12784A434FF0E0235A610022C4
:103430009A611A46126942F001021A6100BF4FF008
:10344000E022106900F001021AB100F48032002A73
:10345000F5D04FF0E022126922F001024FF0E02394
:103460001A6100229A6170472800002070B5044656
:103470000D46E1B20548FFF7DDFA00BF80210348A1
:10348000FFF73AFA0028F9D0204670BD0038014015
:1034900008B54FF4A060FEF77BFC1E208DF80000FD
:1034A00000208DF801008DF8020001208DF8030046
:1034B0006846FEF735FC08BDB6B0FEF7B3FFFDF772
:1034C000EDF9FDF793FF0620FDF720FFC1480388C3
:1034D000C148028800210846FDF71AFDFEF7B2FB3D
:1034E000FEF7D0FBFEF770FD0220BC4908602020EB
:1034F0000860FFF74DFFFEF7F8FB4FF4E13000F0F6
:103500003FFAFDF79FFCB6A0FFF7C4FAFDF79AFC5F
:10351000B6A0FFF7BFFABA484FF4A073F02200211B
:1035200000900846FEF7F2FA6FF07E40FDF7C1FA10
:10353000FEF710FB6FF07E40FDF7BBFAA54803884D
:10354000A548028800210846FDF7E2FCAD484FF48B
:10355000A073F022002100900846FEF7D7FA38E168
:103560000020A9A110231222CDE9001001466420F9
:10357000FDF7EEFC1BA8FDF74BFA012853D19DF88F
:103580006F309DF86E20A2A102A8FFF793FA9DF874
:103590006F209DF86E10A5A0FFF77CFA002002A90D
:1035A00012231A46CDE900101E21FDF7D1FC9DF82B
:1035B0006E001A281CDB20208849091D0860C10004
:1035C0009C48FDF7A2FB9C48FDF773FA4FF480710D
:1035D0009848FDF798FB9848FDF76BFA002097A1F3
:1035E00012231A46CDE900105A21FDF7B1FC08E07C
:1035F000002096A112231A46CDE900105A21FDF7AA
:10360000A7FC9DF86D309DF86C2094A102A8FFF7EF
:1036100051FA002002A912231A46CDE900103C21DC
:10362000FDF796FC08E0002093A112231A46CDE98D
:1036300000101E21FDF78CFC40219248FEF714FB80
:1036400001280CD102206549086000208EA11223B8
:103650001A46CDE900107821FDF77AFC20E04021E0
:103660008848FEF701FBD8B902205C49091D0860B3
:10367000C1017048FDF749FB6F48FDF71AFA4FF496
:1036800080716C48FDF73FFB6B48FDF712FA002094
:1036900081A112231A46CDE900107821FDF758FCCC
:1036A000FDF77CFB06463046FCF757FE04462246F3
:1036B0000B467DA0FFF7EEF93046FCF74EFE0446C0
:1036C00022460B467CA11DA8FFF7F4F9002081A13A
:1036D00012231A46CDE900109621FDF739FC00208F
:1036E0001DA912231A46CDE90010B421FDF730FCC4
:1036F0007F493046FCF760FE26D820203749091D57
:103700000860C1004B48FDF700FB4B48FDF7D1F9BD
:103710004FF480714748FDF7F6FA4748FDF7C9F9BD
:103720003046FCF71AFE044622460B4671A11DA83E
:10373000FFF7C0F9002076A112231A46CDE9001048
:10374000D221FDF705FC0BE0202024490860002071
:1037500073A112231A46CDE90010D221FDF7F8FB20
:1037600020214848FDF7C6FA60B971A0FFF792F929
:10377000002072A112231A46CDE90010F021FDF7B6
:10378000E7FB23E073A0FFF785F9002074A1122363
:103790001A46CDE90010F021FDF7DAFB4FF48071F5
:1037A0002448FDF7B2FA2448FDF783F94FF48071FD
:1037B0002048FDF7A8FA2048FDF77BF9FEF76CFCDE
:1037C0006DA0FFF767F91C48FDF773F91A48FDF77C
:1037D00070F9C5E63200002030000020100C0140D6
:1037E000B4AEBFDAB2E2CAD40D0A0000B3ACC9F974
:1037F000B2A8B3F5CABCBBAFB3C9B9A6210A0000D1
:1038000048900208283A000857656C636F6D6500A0
:10381000A1E3A1EEA1EEA1EECEC2B6C83A20256486
:103820002E2564A1E34320A1EEA1EE0025642E2500
:10383000640D0A0000080140FFFF0F00BEAFB8E6AC
:10384000A3ACCEC2B6C8B9FDB8DF0000CCE1CABE99
:103850003ACEC2B6C8D5FDB3A3A3A100A1E3A1EEA1
:10386000A1EEA1EECAAAB6C83A2025642E25642589
:10387000252020A1EEA1EE00B6C1C8A1CAA7B0DCE8
:103880000000000000180140B9E2CFDFB3E4D7E345
:10389000A3ACB2BBC1C10000B9E2CFDFB2BBD7E37A
:1038A000A3ACB5C6C1C10000BEE0C0EBCEAA3A25AC
:1038B0002E3366636D0A00002F2A2A2A2ABEE0C032
:1038C000EBCEAA3A252E3366636D202A2A2A2A2FA8
:1038D000000000002A2A2A2A2ACCE1CABEA3BABCC8
:1038E000E0B2E2B5BDBEE0C0EB2A2A2A2A2A0000D7
:1038F0000000A0412F2ABEE0C0EBB9FDBDFC2CBEEC
:10390000E0C0EBCEAA3A252E3366636D202A2F0045
:103910002F2ABEE0C0EBD2ECB3A32A2F0000000098
:103920002F2ABEE0C0EBD5FDB3A32A2F0000000074
:10393000B8BDBDFCC3BBC8CB0D0A0000CEDEC8CBF2
:10394000BFBFBDFCA3ACD2BBC7D0D5FDB3A3A3A161
:1039500000000000B8BDBDFCD3D0C8CB0D0A0000EC
:10396000D3D0C8CBBFBFBDFCA3ACBEAFB1A8CFEC1A
:10397000C6F0A3A1000000003532303133313400ED
:1039800010B586B00446012144F20400FEF74EFA59
:103990002348FEF763FF4FF40070ADF814000320D6
:1039A0008DF8160018208DF8170005A91D48FDF7A1
:1039B00016F94FF48060ADF8140004208DF817005C
:1039C00005A91848FDF70BF925208DF80000032004
:1039D0008DF801008DF8020001208DF80300684683
:1039E000FEF79EF901940020ADF80800ADF80A003A
:1039F000ADF80C00ADF810000C20ADF80E0001A9D8
:103A00000748FEF7ABFF012240F225510448FEF7BC
:103A100080FF01210248FEF714FF06B010BD000030
:103A200000380140000801407363936B7363736354
:103A30007363736373639363936393639363936336
:103A400093639363936393639363936393639363C6
:103A500093639363936393639363936393639363B6
:103A600093639363936393639363936393639363A6
:103A70009363936393639463946B9363936393638C
:103A80009363936393639363936393639363936386
:103A9000936393639363B46B9363F5731574936348
:103AA0009363936393639363936393639363936366
:103AB0009363936393639363936393639363936356
:103AC0009363936393639363936393639363936346
:103AD0009363936393639363936393639363936336
:103AE0009363936393639363936393639363367C6A
:103AF000D5739363936393639363936393639363C4
:103B00009363936393639363936393639363936305
:103B10009363936B936B936BD563786C3B759C75D8
:103B2000BD75BD75BE75BE75BE75BE75BE75BE75FF
:103B3000BE75BD75BE7DBE75BE759D7D5EA6BEB6ED
:103B4000BEB6BEB6BEB6BEB6BEB6BEBEBFB6BFB6CB
:103B5000BEB69EBE9EBE9EBE9EBE9EBE9EBE9EB675
:103B60009EB67EB63DB61574936B93639363936371
:103B7000936393639363B36BD46B357C9363936369
:103B80009363936393639363936393639363936385
:103B90009363936393639363936374639463D36B4B
:103BA0007484B36B9463936393639363936393633A
:103BB0009363936393639363936393639363936355
:103BC000936393639363936393639363B46B157489
:103BD000D46BB46BF46B1474F473557CB36B736374
:103BE000936393639363936393639363B36B9363FD
:103BF0009363936393639363936393639363936B0D
:103C0000936393639363D4947363936B73637363EA
:103C10007363736373639363936393639363936354
:103C200093639363936393639363936393639363E4
:103C300093639363936393639363936393639363D4
:103C400093639363936393639363936393639363C4
:103C500093639363936393639363936393639363B4
:103C600093639363936393639363936393639363A4
:103C700093639363936393639363B36BB36B936344
:103C80009363936393639363936393639363936384
:103C90009363936393639363936393639363936374
:103CA0009363936393639363936393639363936364
:103CB0009363936393639363936393639363936354
:103CC0009363936393639363936393639363D46BFB
:103CD000B36B93639363936393639363936393630C
:103CE0009363936393639363936393639463946322
:103CF0009363936B936B936BB463376C5B7DBD7D08
:103D0000BD7DBD75BE7DBE7DBE7DBE75BE75BE75FD
:103D1000BE75BD75BE7DBE7DBD75DD859FAE9EB693
:103D2000BEB6DFB6BEB6BEB6BFB6BFB6BFB6BFB6CE
:103D3000BFB6BEB6BEB6BEBE9FBEBEBEBEBEBFBED8
:103D4000BFBEBFBE9EBE5DBE7363936B7363936362
:103D5000936393639363B36B93639363936393638B
:103D6000936393639363936397841574B36B9363C3
:103D70009363936393639363936393639363D78C26
:103D80003FDFF473936393639363936393639363EA
:103D90009363936393639363936393639363936373
:103DA0007784F473B36B9363B46BF473B46B936302
:103DB000B3639363936393639363B46B1574936377
:103DC0009363936393639363936393639363936343
:103DD0009363936393639363B36BD46B93637363E2
:103DE000936393639363D4947363936B7363736309
:103DF0007363736373639363936393639363936373
:103E00009363936393639363936393639363936302
:103E100093639363936393639363936393639363F2
:103E200093639363936393639363936393639363E2
:103E300093639363936393639363936393639363D2
:103E400093639363936393639363936393639363C2
:103E500093639363936393639363936393639363B2
:103E600093639363936393639363936393639363A2
:103E70009363936393639363936393639363936392
:103E80009363936393639363936393639363936382
:103E90009363936393639363936393639363936372
:103EA0009363936393639363936393639363F573F0
:103EB000B36B357CB78CB36B9363936393639363FA
:103EC000936393639363936393639363946B946338
:103ED00093637363936B936B9363166C1B7D9D7DF0
:103EE000BD7DBD75BE7DBE75BE7DBE75BE75BE7524
:103EF000BE75BD75BE7DBE7DBD75DD859FAEBFB691
:103F0000BFBEBEB69EB6BFB6BFB6BFB6BFB6BFB623
:103F1000BFB6BFB6BFB6BFBEBFBEBFBEBFB6BEBEDA
:103F20009EBEBEBE9EBE9EC693637363936BB46B10
:103F30009363946B1574B36B93639363936393630D
:103F40009363936393639363F573B46B9363936326
:103F50009363936393639363936392639363B36B8A
:103F60003474B263936393639363936393639363D0
:103F70009363936393639363936393639363936391
:103F8000157476841574D46BD46B93639363B36B9D
:103F9000936B936B936BB46393639363F573F47355
:103FA0009363936393639363936393639363936361
:103FB00093639363936393631574B78C9363736391
:103FC000936B93639363D4947363936B736373631F
:103FD0007363736373639363936393639363936391
:103FE0009363936393639363936393639363936321
:103FF0009363936393639363936393639363936311
:104000009363936393639363936393639363936300
:1040100093639363936393639363936393639363F0
:1040200093639363936393639363936393639363E0
:1040300093639363936393639363936393639363D0
:1040400093639363936393639363936393639363C0
:1040500093639363936393639363936393639363B0
:1040600093639363936393639363936393639363A0
:104070009363936393639363936393639363936390
:1040800093639363936393639363936393637363A0
:10409000B36BF78CFBB5D36B9363936393639363B9
:1040A0009363936393639363936393639363936360
:1040B000936373637363936B9363F56B99747C7D04
:1040C000BD75BD75BE75BE75BE75BE75BE75BE755A
:1040D000BE75BD75BE7DBE75BD75DE85BFAEBFB696
:1040E000BFB67EAE9EAEBFB6BFB6BFB6BFB6BFB69A
:1040F000BFB6BFB6BFB69FB6BFBEBFBEBFB6BEBE21
:104100009EBEBEBEBFBE9EBE9A9D93637363936305
:1041100093639363F994B46BB36B93639363936307
:104120009363936393639363B46B936393639363B6
:1041300093639363946B9463936393639363B36B9D
:104140009363B36B93639363936393639363936397
:1041500093639363936393639363936393639363AF
:104160009363B46BD46BB46B936393639363936BFC
:10417000936B936B9363936393639363B36B357C9C
:10418000B36B936393639363936393639363936357
:10419000936393639363B36B936393639363736367
:1041A000936B93639363D4947363936B736373633D
:1041B00073637363736393639363936393639363AF
:1041C000936393639363936393639363936393633F
:1041D000936393639363936393639363936393632F
:1041E000936393639363936393639363936393631F
:1041F000936393639363936393639363936393630F
:1042000093639363936393639363936393639363FE
:1042100093639363936393639363936393639363EE
:1042200093639363936393639363936393639363DE
:1042300093639363936393639363936393639363CE
:1042400093639363936393639363936393639363BE
:1042500093639363936393639363936393639363AE
:104260009363936393639363936393639363936B96
:10427000B36B9263B263B36B93639363936B936318
:10428000936393639363567CD46B93639363936359
:10429000936373637363936B9463F56B376CB96467
:1042A000BD7DBD75BE75BE75BE75BE75BE75BE7570
:1042B000BE75BD75BE75BE75BE75BD7D5E9E9FAE7D
:1042C000BFAE1D9E9FAEBFB6BFB6BFB6BEB6BEBE2A
:1042D000BEB6BFB6BFB69FB6BEBE9EBEBEBE9EBE7B
:1042E0009EBEBEBE9FB6BEBEBFBEB7849363936381
:1042F000936393639363936393639363936393630E
:1043000093639363936393639363936393639363FD
:104310009363936393639363367CB36B9363946B00
:1043200074639363936393639363936393639363FC
:1043300093639363936393639363936393639363CD
:10434000B36B1574567CB36B93637784B46B7363F0
:10435000946B9363B3639363946B93639363758478
:1043600015749363B36B93639363936393639363E2
:1043700093639363936393639363936393637363AD
:10438000936B93639363D494936394639363936302
:10439000936393639363936393639363936393636D
:1043A000936393639363936393639363936393635D
:1043B000936393639363936393639363936393634D
:1043C000936393639363936393639363936393633D
:1043D000936393639363936393639363936393632D
:1043E000936393639363936393639363936393631D
:1043F000936393639363936393639363936393630D
:1044000093639363936393639363936393639363FC
:1044100093639363936393639363936393639363EC
:1044200093639363936393639363936393639363DC
:1044300093639363936393639363946B93639363C3
:10444000936393639363936393639363936B936BAC
:10445000936B93639363936393639363936B93639C
:10446000936393639363557CD36B93639363746398
:1044700093639363936B936B9463B46BD46B986CFB
:104480007D7DBE7DBE75BE75BD75BE75BE7DBE7DB6
:10449000BE75BE75BE75BE75BE7DFE851E8E7F9EC9
:1044A0009FA61D96BFAE9EBEBEB6BEB6BFB6BEB67A
:1044B0009FB69EB6BFB6BFB6BFB69FB69EB6BEBECF
:1044C000BEBE9EBEBEBEBEBEBFBE399D9363946BD4
:1044D0009363936B9363936393639363B36BB36BD4
:1044E000B46B9363936393639363936393639363F3
:1044F0009363936393639363B46B9363946B9363DA
:104500009363B46B936393639363936393639363D2
:1045100093639363936393639363936393639363EB
:10452000B46BD46B76849363936393639463936364
:10453000B36B9363946B936393639363936393639A
:10454000B36BB36B9363936393639363936393636B
:104550009363936393639363936393639363936BA3
:10456000936B93639363D494936394639363936320
:10457000936393639363936393639363936393638B
:10458000936393639363936393639363936393637B
:10459000936393639363936393639363936393636B
:1045A000936393639363936393639363936393635B
:1045B000936393639363936393639363936393634B
:1045C000936393639363936393639363936393633B
:1045D000936393639363936393639363936393632B
:1045E000936393639363936393639363936393631B
:1045F000936393639363936393639363936393630B
:1046000093639363936393639363936393639363FA
:1046100093639363936393639363936393639363EA
:104620009363946BB46BB46B9363B36B9363936357
:1046300093639363936393639363936393639363CA
:1046400093639363936393639363936374639363D9
:1046500093639363936B936B93637363B46BDA7439
:104660009D75BE7DBE75BE75BE75BE75BE7DBE7DBB
:10467000BE75BE75BE7DBE7DFE853F8E3E8E1E8E96
:104680005F9E1E96BFAEBEB6BEB6BEB6BEB6BEB6C8
:10469000BFB6BFB69EAE7EAE7EAE9EAEBFB69FB676
:1046A0009EBE9EBEBEBEBEBEBFBE3DB696849363DA
:1046B0009363936B9363936393639363B36B768416
:1046C000B46B936394639363936393639363936310
:1046D000936393639363946B9363B46B93639363F8
:1046E000936373639363936393639363936393633A
:1046F000936393639363936393639363936393630A
:10470000946B9363936393639363936393639363F0
:1047100093639363936393639363936393639363E9
:104720009363D46B93639363936393639363936390
:104730009363936393639363936393639363936BC1
:10474000936B93639363D49493639463946394633C
:1047500093639363936393639363936393639363A9
:104760009363936393639363936393639363936399
:104770009363936393639363936393639363936389
:104780009363936393639363936393639363936379
:104790009363936393639363936393639363936369
:1047A0009363936393639363936393639363936359
:1047B0009363936393639363936393639363936349
:1047C0009363936393639363936393639363936339
:1047D0009363936393639363936393639363936329
:1047E0009363936393639363936394639463946316
:1047F000936393639363936393639363946B936300
:104800009363B46BB46B367C936B936393639463E1
:1048100094639463946393639463946393639363E3
:104820009363936B946393639363936374639363EE
:104830009363936B936B936B936B7363F56B5C7D7B
:10484000BE7DBE7DBE75BD75DE7DFF85FF85BD7DF0
:10485000BE7DBE7DBD7DDE7D1F861F8E1F8E3F8E81
:104860001F8E1E96BFAE9EB6BEB69EB6BFB6BFB674
:104870009EAE5EA65E9E3E9E3E9E5E9E5EA69FAEE7
:104880009FB69EBEBEBEBEBE9EBE9EBE9EBE3DB678
:10489000767C9363B36BB36B93639363B36BD46BAB
:1048A000B46B946B93639363936393639363936326
:1048B0009363936393639363936393639363736368
:1048C000367CB46B93639363936393639363936353
:1048D0009363936393639363936393639363936328
:1048E0009363936393639363936393639363B36BF0
:1048F000F573F473B36B9363936393639363B36BD5
:10490000B36B936393639363936393639363946BC6
:104910009363B46B93639363936393639363936BB6
:10492000936B93639363D49493639463946394635A
:1049300093639363936393639363936393639363C7
:1049400093639363936393639363936393639363B7
:1049500093639363936393639363936393639363A7
:104960009363936393639363936393639363936397
:104970009363936393639363936393639363936387
:104980009363936393639363936393639363936377
:104990009363936393639363936393639363936367
:1049A0009363936393639363936393639363936357
:1049B0009363936393639363936393639363936347
:1049C0009363936393639363B36B93639363946B06
:1049D000936393639363D46B946BD46B567C9363B0
:1049E0009363936393639363936393639363936317
:1049F0009363936B936B936B9363936393639363EF
:104A0000936B936B936393639363936393639363E6
:104A100093639463936B936B936BB463776C9D7D9B
:104A2000BE7DBE75BD75DE7D1F861F8EDE7DBD7DA4
:104A3000BE7DBE7DBD7DDE7D3F8E1E8E1E8E1E8E9A
:104A40001E8E5E9EBFB6BEB69EBEBEB6BEB6BFB61C
:104A5000BFAE7E9E3E963E963E963E963E963EA6C5
:104A60007EAE9EB6BEB6BFBEBEBE9EBEBEBEBEBE05
:104A70007EBE1574B363F57315749363946B93637F
:104A80009363936393639363936393639363936376
:104A90009363936393639363936393639363936366
:104AA000946B9363946B9363936393639363936344
:104AB0009363936393639363936393639363936346
:104AC000936393639363936393639363936B936B26
:104AD0009363D46B767C9363946B94631474B58402
:104AE000D46B936393639363936394639463B46BA2
:104AF000B36BD46BF5739363936394639363936B1A
:104B0000936B93639363D4949363946B9463946370
:104B100093639363936393639363936393639363E5
:104B200093639363936393639363936393639363D5
:104B300093639363936393639363936393639363C5
:104B400093639363936393639363936393639363B5
:104B500093639363936393639363936393639363A5
:104B60009363936393639363936393639363936395
:104B70009363936393639363936393639363936385
:104B80009363936393639363936393639363936375
:104B90009363936393639363936393639363946364
:104BA000946393639363357C978493639463936373
:104BB0009363936393631574B46B9363B46BB46B37
:104BC000B4639363B46BB463B4639363946B936B98
:104BD000936B936B936B936B936393639363936305
:104BE000946B946B93639363946393639463946300
:104BF00094639463946393639363156C1A75BE7D99
:104C0000BE75BD75BD7DFE853F8E1E86DE85DE7D53
:104C1000DE7DBE75BE7DDE7D1F8E1E8E1E8E1E8EBF
:104C20009FA6BFAEBFB69FBE9EBE9EBE9FB67EAEC7
:104C30007EA65F9E3F961F963E963E8E3E963E9E79
:104C40005EA67EAE9EB6BEB69EBEBEBE9EBE9EBEDC
:104C50009EBEF894B363B46B9363946B9363936356
:104C60009363557C799DB36B936393639363936371
:104C7000936393639363936393639363946B946B72
:104C800093639363946B936393639363936393636B
:104C90009363936393639363936393639363936364
:104CA000936393639463936393639363936B936B43
:104CB0009363B36BB78C93639463B46B79A57FDF15
:104CC000778493639363946B946B9463946393631B
:104CD000B36BF473F5739363936393639363936B11
:104CE000936B93639363D4949363946B946394638F
:104CF0009363936393639363936393639363936304
:104D000093639363936393639363936393639363F3
:104D100093639363936394639463946394639463DE
:104D200094639363936393639363936393639363D2
:104D300093639363936393639363936393639363C3
:104D400093639363936393639363936393639363B3
:104D500093639363936393639363936393639363A3
:104D60009363936393639363936393639363936393
:104D70009363936393639363946394639463936380
:104D80009363B46B9363B36BD46B936393639363D9
:104D900093639363946BB46BB46B946BB36B9363D7
:104DA000B46BB46B9363B46B9363B463946B936BA6
:104DB0009363B363946394639363B463946B9363F7
:104DC0009363B463557CB36B94639363B36B9463E5
:104DD00094639463946394639363376C5C7DBE7552
:104DE000BE7DBE75DE7D1F863F8E1F8E1F8E1F8E81
:104DF000DE7DDE7DBE75DE7D1F861E8E1E969FAE1D
:104E0000BFB69EB6BEBE9FB69FB6BFB69FB65EA6E5
:104E10003E961E961F961F961E963E963E963E9670
:104E20003E9E3E9E7EA69FB69EBEBEBEBEBE9EBEA1
:104E30009EBE599593637363936B9363936393637C
:104E4000B36B1474D78CB36B936393639363936363
:104E50009363936393639363F5731574936393639D
:104E60009363936394639363936393639363936391
:104E70009463936393639363936393639363936381
:104E80009363936393639363936393639463946B68
:104E9000B46B7784F473D46B94639363D36B1374A0
:104EA000B46B93639363946B946B93639363936317
:104EB0009363946B93639363946B946BB46B9363FE
:104EC0009363B4639363D4949363946B9463946394
:104ED0009363936393639363936393639363936322
:104EE0009363936393639363936393639363936312
:104EF00093639363936394639463946394639463FD
:104F000094639363936393639363936393639363F0
:104F100093639363936393639363936393639363E1
:104F200093639363936393639363936393639363D1
:104F300093639363936393639363936393639363C1
:104F400093639363936393639363936393639363B1
:104F500093639363936393639363936393639363A1
:104F60009363936393639363946B93639363936388
:104F700093639363946B9363946B9363B36BB46326
:104F8000B463B36B93639363936B936BB3639363F8
:104F9000B463166C176C58749874F66B9463946BC6
:104FA0009363B46B799DB36B9363946B93639463D6
:104FB00094639463946394639363376C7C7DBE7550
:104FC000BE7DBE7DDE853F8E1F8E1F8E1F8E1F8E87
:104FD000FE85FE85DE7DBE7D1F8E1E969FA6BFB61A
:104FE0009EB6BEB6BFB6DFB6BEB69EAEBFAE7E9EA6
:104FF0003E961E8E1F8E1F8E1E963E8E1E8E3E96D7
:105000003E963E965E9E9FAE9EBE9EBE9EBE9EBE3F
:105010009EBE3DB676849363936393639363936379
:1050200093639363936393639463946B946B946BB4
:1050300093639363936393639363936393639363C0
:1050400093639363946393639363936393639363AF
:1050500093639363936393639363936393639363A0
:10506000936393639363936393639363946394638E
:10507000B46BB46BB46BB36BD46BB36BB36BB46B1B
:105080009363936393639363936393639363936370
:10509000936393639363B36BB36B9784367CB46B06
:1050A000946393639363D4949363B46394639463BA
:1050B000936394639463936393639363936393633E
:1050C0009363936393639363936393639363936330
:1050D000936393639363946394639463946394631B
:1050E000946393639363936393639363936393630F
:1050F0009363936393639363936393639363936300
:1051000093639363936393639363936393639363EF
:1051100093639363936393639363936393639363DF
:1051200093639363936393639363936393639363CF
:1051300094639463936394639363936393639363BC
:1051400093639463936393639363936393639363AE
:10515000936393639363936393639363B36B946B6E
:10516000936B936B946B936B936B736BB46B166CC9
:105170003B7D9D85BE7DBE7DBD7D7C85F66B73636D
:10518000936BB363B36BB36B9463946394639463F3
:1051900094639463946393639363166C5B7DBE75B1
:1051A000DE7DBE7DFE851F8E1E8E1F8E1F8E1E8E87
:1051B0001F8EFE85DE7DDE7DFE8D3E9EDFB6BFAEA0
:1051C0009FAE5EA65E9E3E963E961E963F963F968C
:1051D0001E8E1E8E1F8E1E8E1E961E8E3F8E3F8E24
:1051E0003F963F963E9E9FB6BEBE9EBE9EBE9EBE54
:1051F0009EBE7EBE5EBEB784B36B93639363946BB7
:10520000936393639363936393639363946B9363E5
:1052100093639363936393639363936393639363DE
:1052200093639363946393639363936394639463CB
:1052300093639363936393639363936393639363BE
:105240009363936393639363936393639363946BA5
:10525000946B93639363D36B9AA5D78C9363946396
:10526000936393639363936393639363936393638E
:105270009363946BB36B9363B36BB36BD46B946BAB
:10528000946393639363D4949363B46394639463D8
:10529000936394639463936393639363936393635C
:1052A000936393639363936393639363936393634E
:1052B0009363936393639463946394639463946339
:1052C000946393639363936393639363936393632D
:1052D000936393639363936393639363936393631E
:1052E000936393639363936393639363946B936305
:1052F00093639363936393639363936393639363FE
:1053000093639363936393639363936393639363ED
:10531000946394639463946B946B936393639363C8
:1053200093639363936393639363936393639363CD
:10533000936393639363936393639363B36B936395
:10534000D46BB36B946B94639463576C5B7DBD7D3E
:10535000BE7DBE7DBE7DBE7DBE7DBE753B7DB46324
:10536000946B936393639363936393639463946382
:1053700094639463946393639363B563B974BE7DDC
:10538000BE75BE7DDE7DFE851E861F861E861E8640
:105390001E861E861F863F861F8E7EA6BEAEBFAEB1
:1053A0001D8E1E8E1F8E1E8E1E8E1E8E1E8E1E8E9D
:1053B0001E8E1E8E3F963F8E1F961E961E963E9EFA
:1053C0005E9E7FA67EAEBFB69EBE9EBE9EBE9EBEAB
:1053D0009EBE9EBE9EC67EBE14749363946B936302
:1053E000936393639363936393639363936393630D
:1053F00093639363936393639363936393639363FD
:1054000093639363946393639363936393639363EB
:1054100093639363936393639363936393639363DC
:1054200093639363936393639363936393639363CC
:10543000936393639363B36BB36B9363936393636C
:1054400093639363936393639363936393639363AC
:1054500093639363B46B936393639363B363936353
:10546000946393639363D4949463B46394639463F5
:105470009463946394639363936393639363936379
:10548000936393639363936393639363936393636C
:105490009363936394639463946394639463946356
:1054A000946393639363936393639363936393634B
:1054B000936393639363936393639363936393633C
:1054C00093639363936393639363946B946B93631A
:1054D000936393639363936393639363936393631C
:1054E000936393639363936393639363936393630C
:1054F00094639463936394639463946394639463F5
:1055000093639363936393639363936393639363EB
:10551000946394639463946393639363936BB26BA8
:105520001474D463166C366C776CBD85BE75BE750D
:10553000BE75DE75BD7DBD75BD7DBE759C7DF6639A
:10554000946B9363936B936B936B9363936393638A
:1055500093639363936B936393639463786C9D7D80
:10556000BE7D9D75BE7DFE851E861F8E1F8E1E8E86
:105570003E8E1E8E1F863F861E8E7EA6BFB67EA6E0
:105580001E8E3F8E1F861F8E1F8E1F8E1E8E1E8E9E
:105590001E8E1F961F8E1E8E1E963E9E7FAEBFB61F
:1055A000BFB6BFB6BFB6BEBEBEBE9EBE9FBE9EBE8F
:1055B0009EBEBEBE7EBE9EC6767C9363946BB46B6D
:1055C000936393639363936393639363936393632B
:1055D000936393639363936393639363936393631B
:1055E000936393639363936393639363936393630B
:1055F00093639363936393639363936393639363FB
:1056000093639363936393639363936393639363EA
:1056100093639363936393639463946B946B9363C7
:1056200093639363936393639363936393639363CA
:1056300093637784B46BB46393639363936393636B
:10564000946393639363D4949463B4639463946313
:105650009463946394639363936393639363936397
:10566000936393639363936393639363936393638A
:105670009363936394639463946394639463946374
:105680009463936393639363936393639363936369
:10569000936393639363936393639363936393635A
:1056A00093639363936393639363946B946B936338
:1056B000936393639363936393639363936393633A
:1056C000936393639363936393639363936393632A
:1056D0009463946393639463946393639463946314
:1056E0009463936393639363936393639363936309
:1056F00094639463936394639463B463F473B9ADF4
:10570000B784F9749C85BD7DBC7DBD7DBE75BE75BD
:10571000BE75BE75DE75BE7DBD7DBE7DBD7DFA7478
:105720009463736B936B936B936B936393639363C8
:1057300093639363936393639363B56B986C9D7D5D
:10574000BE7DBD75BE7DDE7DDE7DFE851E861E8E28
:105750001E8E3E8E1E8E1E8E1E8E5E9E9FAE3D96B1
:105760001E8E1F861F8E1F8E1F8E3E8E1E8E1E8EBD
:105770001E8E1F8E1F961E8E7FA6BFB6BFB6BEB6EC
:10578000BEB6BEB6BEB6BEBEBEBE9EBE9EBE9EBEB1
:105790009EBE9EBE9EBE7EBEFCADB46B936B9363FD
:1057A0009363936393639363946393639363936348
:1057B0009463936393639363936393639363936338
:1057C0009363936393639363936393639363936329
:1057D0009363936393639363936393639363936319
:1057E0009363936393639363936393639363936309
:1057F00093639363936393639463946BB46B9363C6
:1058000093639363936393639363936393639363E8
:10581000B463F57393639363936393639363936345
:105820009463B3639363D4949463B4639463946311
:1058300094639463946393639363936393639363B5
:105840009363946B9363936393639363936393639F
:105850009363936394639463946394639363936394
:105860009363936393639363936393639363936388
:105870009363936393639363936393639363936378
:10588000936393639363936393639363946B93635F
:105890009363936393639363936393639363936358
:1058A0009363936393639363936393639363936348
:1058B000946394639363946394639463946B946B21
:1058C000946B93639363936393639363936393631F
:1058D000936393639363936B9463B36B75845CB6C8
:1058E000DC959D7DBE7DDE75BE75DD75DD75BE7D8D
:1058F000BE7DBE75BD75BE7DBE7D9E7DBE75FE7DC9
:10590000576C736B946B946B94639463936393631E
:105910009363B36393639363936357741A75BD7D05
:10592000BE7DBE75BE75BE7DBE7DFE851F861E8694
:105930001E8E3F8E3E969FA69FA67F9E3E961E8EF3
:105940001F8E1F863F8E3E8E1E8E1E8E1F8E1E8EBB
:105950003F8E3F8E1E965EA6BFB6BEBE9EBEBEBE2C
:10596000BEBEBEBEBEBEBEBEBFBEBEBEBEBE9EBE76
:105970009EBE9EBE9EBEBEBE9EBE7AA59363936330
:105980009363B363B36B946B936393639363936316
:105990009463936393639363936393639363936356
:1059A0009363936393639363936393639363936347
:1059B0009363936393639363936393639363936337
:1059C0009363936393639363936393639363936327
:1059D00093639363936393639363946B9363B36BE6
:1059E000946B936393639363936393639363946BF5
:1059F00093639363B4639363936393639363946BCD
:105A0000B463B3639363D4949463B463946394630F
:105A1000946394639463946BB46B946B9363946B8F
:105A2000946B7363936393639363936393639363DD
:105A300093639363946394639463946394639463B0
:105A400094639363936393639363936393639363A5
:105A50009363936393639363936393639363936396
:105A60009363936393639363936393639363936386
:105A70009363B46393639363936393639363936355
:105A8000936394639463946394639463946394635F
:105A9000946B9463936394639463B463B463B463E7
:105AA000B463F56BF56B9363946B93639363936348
:105AB000946393639463936B9363B363B36B557411
:105AC0005B7DDE75BE7DBD7DBE7DBD75BD75BD7D5D
:105AD000BE7DBE7DBE7DBE7DBE7D9D7DBE75BD7520
